:020000040800F2
:10000000D806002029020008D91F0008951E000804
:10001000D51F00081F040008852400080000000008
:10002000000000000000000000000000DF1F0008CA
:100030002304000800000000DD1F0008E11F000885
:10004000430200084302000843020008430200087C
:10005000430200084302000843020008430200086C
:10006000430200084302000843020008430200085C
:10007000430200084302000843020008430200084C
:10008000430200084302000843020008430200083C
:10009000430200084302000843020008430200082C
:1000A00043020008812000084302000843020008C0
:1000B0004302000843020008000000004302000859
:1000C0004302000800000000000000004302000896
:1000D0000000000043020008430200084302000839
:1000E0004302000843020008000000000000000076
:1000F0000000000000000000000000000000000000
:1001000000000000000000000000000000000000EF
:100110000000000000000000430200084302000845
:1001200000000000000000000000000000000000CF
:1001300000000000000000000000000000000000BF
:1001400043020008430200080000000043020008C8
:10015000430200084302000843020008430200086B
:1001600043020008430200080000000000000000F5
:10017000000000000000000000000000000000007F
:10018000000000004302000800F002F800F03CF814
:100190000AA090E8000C82448344AAF10107DA45E2
:1001A00001D100F031F8AFF2090EBAE80F0013F0F8
:1001B000010F18BFFB1A43F0010318478C240000FD
:1001C000AC240000103A24BF78C878C1FAD852078E
:1001D00024BF30C830C144BF04680C6070470000C1
:1001E0000023002400250026103A28BF78C1FBD840
:1001F000520728BF30C148BF0B6070471FB502F0DF
:1002000001FA1FBD10B510BD00F0CFF81146FFF781
:10021000F5FF02F055F900F0EDF803B4FFF7F2FF37
:1002200003BC00F0F5F80000094880470948004782
:10023000FEE7FEE7FEE7FEE7FEE7FEE7FEE7FEE796
:10024000FEE7FEE704480549054A064B70470000F3
:100250006D20000889010008D8000020D806002081
:10026000D8020020D802002053EA020C00F0698076
:100270002DE9F04B4FF00006002B1FBFB3FA83F5BA
:1002800003FA05F424FA05F65E4012BF1643B2FAEB
:1002900082F502FA05F4C5F120051EBF22FA05FC1D
:1002A00044EA0C04203556EA044C4FEA144418BFC3
:1002B000641C4FF000084FF00009904271EB030CF2
:1002C00039D3002919BFB1FA81F701FA07F6B0FA5C
:1002D00080F700FA07F6C7F120071EBF20FA07FCD7
:1002E00046EA0C062037B6FBF4FCA7EB0507103FE7
:1002F00007F01F0BCBF120060CFA0BFB2CFA06F6CD
:1003000044BFB3460026202FA4BF5E464FF0000B2B
:100310005BEA060C08BF4FF0010B19EB0B09ABFBB6
:10032000027C48EB0608C01B06FB02CC0BFB03CC8F
:1003300071EB0C01C1E70B46024641464846BDE859
:10034000F08B13B54FF000004FF00001AFF30080C9
:10035000BDE81C4070474FF0000200B513469446BC
:100360009646203922BFA0E80C50A0E80C50B1F10D
:100370002001BFF4F7AF090728BFA0E80C5048BF21
:100380000CC05DF804EB890028BF40F8042B08BFBF
:10039000704748BF20F8022B11F0804F18BF00F8BB
:1003A000012B7047704770477047754600F02CF876
:1003B000AE4605006946534620F00700854618B052
:1003C00020B5FFF73FFFBDE820404FF000064FF09B
:1003D00000074FF000084FF0000B21F00701AC467A
:1003E000ACE8C009ACE8C009ACE8C009ACE8C00999
:1003F0008D46704710B50446AFF300802046BDE837
:100400001040FFF70ABF000000487047740000204A
:1004100001491820ABBEFEE726000200704700BF6E
:10042000FEE7704772B600BFFEE7000070B50446F5
:1004300000F0EEF806462546681C10B10448007826
:10044000054400BF00F0E4F8801BA842FAD370BD59
:100450002000002078B503460A460021C0E00126AE
:100460008E40156805EA0604002C73D0157905F056
:100470000305012D04D0157905F00305022D13D1D4
:1004800098684E000325B540A8434E00D568B54096
:1004900028439860586801258D40A8431579C5F315
:1004A00000158D4028435860157905F00305032D8C
:1004B00009D0D8684E000325B540A8434E00956882
:1004C000B5402843D860157905F00305022D13D1F6
:1004D000CE0803F1200555F826004D07EE0E0F2536
:1004E000B540A8434E07F60E1569B5402843CE081F
:1004F00003F1200545F8260018684E000325B54095
:10050000A843157905F003054E00B540284318604F
:10051000556805F44035002D61D000BF334DAD69FD
:1005200045F00105314EB5613546AD6905F001056F
:10053000009500BF00BF4FEAB6358E0855F826007B
:100540008D072E0F0F25B540A843B3F1904F02D170
:10055000002510E043E0264DAB4201D101250AE021
:10056000244DAB4201D1022505E0234DAB4201D120
:10057000032500E005258E07360FB54028431F4DA3
:100580008E0845F826001E4D2868A043556805F4DE
:10059000801505B120431A4D28602D1D2868A04301
:1005A000556805F4001505B12043154D2D1D286033
:1005B000134D2D1F2868A043556805F4003505B17B
:1005C00020430F4D2D1F28602D1F2868A04355681C
:1005D00005F4803505B12043094D083D2860491CCC
:1005E0001568CD40002D7FF43AAF78BD0010024071
:1005F0000004004800080048000C004808000140C2
:10060000080401400AB1816100E081627047000086
:100610000148006870470000180000200348006887
:100620000349097808440149086070471800002010
:100630002000002010B50848006840F0100006496E
:100640000860032000F09EF80F2000F007F800F08B
:100650002BF8002010BD00000020024070B50446B9
:100660000E4800784FF47A71B1FBF0F00C4909683C
:10067000B1FBF0F5284601F057F808B1012070BD34
:10068000102C07D200222146501E00F03DF80548EC
:10069000046001E00120F2E70020F0E720000020E4
:1006A000240000201C00002008B500BF0D48806910
:1006B00040F001000B4988610846806900F00100A4
:1006C000009000BF00BF00BF0846C06940F08050E6
:1006D000C8610846C06900F08050009000BF00BFAC
:1006E00008BD00000010024001460846002809DB52
:1006F00000F01F0301229A4043099B0003F1E0230D
:10070000C3F8002100BF70472DE9F05F80460D4619
:100710001646002701F0B8FE074639462A463346FA
:1007200001F00700C0F1070ABAF1040F02D94FF037
:10073000040A01E0C0F1070AD14600F1040ABAF147
:10074000070F02D24FF0000A01E0A0F1030AD446DD
:100750004FF0010A0AFA09FAAAF1010A0AEA020AA2
:100760000AFA0CFA4FF0010B0BFA0CFBABF1010B80
:100770000BEA030B4AEA0B042146404601F08CFECB
:10078000BDE8F09F00BF00F00702064B19684FF666
:10079000FF031940044B0B4343EA0221014B19604C
:1007A00000BF70470CED00E00000FA05F8B5044604
:1007B000002600250027206800F48030B0F5803F37
:1007C00073D17A48C06900F0805070B900BF774893
:1007D000C06940F080507549C8610846C06900F0A2
:1007E0008050009000BF00BF01277148006800F4EE
:1007F0008070B0B96E48006840F480706C49086041
:10080000FFF706FF064606E0FFF702FF801B64289D
:1008100001D90320F8BD6648006800F48070002804
:10082000F2D06248006A00F44075002D6BD0A088B9
:1008300000F44070A84266D05C48006A20F440751D
:100840000121080490FAA0F0B0FA80F0594A02EBB6
:100850008000C0F800140020090491FAA1F1B1FA57
:1008600081F102EB8101C1F800045048056205F0F6
:100870000100B8B3FFF7CCFE064608E0FFF7C8FE5C
:10088000801B41F28831884201D90320C2E7402011
:10089000022191FAA1F1B1FA81F108430121B1EBF2
:1008A000601F03D1414800681FE03BE04020022167
:1008B00091FAA1F1B1FA81F108430221B1EB601F75
:1008C00002D13A48006A10E04020022191FAA1F1D9
:1008D000B1FA81F108430421B1EB601F03D1334821
:1008E000406802E00FE03148406A4021022292FA5B
:1008F000A2F2B2FA82F2114301F01F0201219140EB
:1009000008400028BAD02948006A20F44070616885
:10091000084326490862012F04D10846C06920F027
:100920008050C861207800F0010038B11F48006B8A
:1009300020F00300A16808431C490863207800F0F8
:100940002000202807D11948006B20F01000E16832
:10095000084316490863207800F08000802807D1FA
:100960001248C06A20F4F870216908430F49C86230
:10097000208800F48050B0F5805F07D10B48006BF1
:1009800020F480706169084308490863208800F4F6
:100990008040B0F5804F07D10448006B20F48050B0
:1009A000A169084301490863002033E700100240B1
:1009B000007000400000424270B504460D4600261B
:1009C0000CB9012070BDA248006800F00700A842E1
:1009D0000ED29F48006820F0070028439C49086019
:1009E0000846006800F00700A84201D00120E9E7AE
:1009F000207800F00200022807D19648406820F0D5
:100A0000F000A168084393494860207800F0010095
:100A100000287CD0606801283BD12020010391FA96
:100A2000A1F1B1FA81F108430121B1EB601F02D1BC
:100A3000884800681DE02020010391FAA1F1B1FA75
:100A400081F108430221B1EB601F02D18148006AA5
:100A50000FE02020010391FAA1F1B1FA81F10843DE
:100A60000421B1EB601F02D17A48406801E0794867
:100A7000406A20210A0392FAA2F2B2FA82F21143EA
:100A800001F01F0201219140084000287CD1012083
:100A900098E7606802283BD12020010591FAA1F176
:100AA000B1FA81F108430121B1EB601F02D169481D
:100AB00000681DE02020010591FAA1F1B1FA81F151
:100AC00008430221B1EB601F02D16248006A0FE0C7
:100AD0002020010591FAA1F1B1FA81F10843042126
:100AE000B1EB601F02D15B48406801E05948406AA1
:100AF00020210A0592FAA2F2B2FA82F2114301F021
:100B00001F02012191400840E8BB01205AE758E04C
:100B10002020022191FAA1F1B1FA81F108430121CB
:100B2000B1EB601F02D14B4800681DE0202002217C
:100B300091FAA1F1B1FA81F108430221B1EB601FF2
:100B400002D14448006A0FE02020022191FAA1F16D
:100B5000B1FA81F108430421B1EB601F02D13D4895
:100B6000406801E03B48406A2021022292FAA2F24A
:100B7000B2FA82F2114301F01F02012191400840B4
:100B800008B901201EE7FFE73248406820F0030063
:100B9000616808432F494860FFF73AFD064608E0C0
:100BA000FFF736FD801B41F28831884201D90320CE
:100BB00008E72848406800F00C006168B0EB810F3E
:100BC000EED12348006800F00700A8420ED9204863
:100BD000006820F0070028431D49086008460068A7
:100BE00000F00700A84201D00120EBE6207800F0D9
:100BF0000400042807D11748406820F4E060E16849
:100C0000084314494860207800F00800082808D1FB
:100C10001048406820F46050216940EAC1000D4945
:100C2000486000F01FF80B49496801F0F001F0221C
:100C300092FAA2F2B2FA82F2D140074A515CC8405D
:100C40000649086006480068FFF708FD0020B9E67D
:100C500000200240001002402E2600082400002040
:100C60001C0000202DE9F04100240025002700266B
:100C7000A0461F48446804F00C0078B3042802D052
:100C800008282CD102E0DFF86C802CE004F470100E
:100C90004FF4701191FAA1F1B1FA81F1C8401649EF
:100CA0000E5C1348C06A00F00F000F2191FAA1F109
:100CB000B1FA81F1C84011490D5C04F4803040B1B3
:100CC0002A4600230B481946FFF7CEFAA0FB06710F
:100CD00002E00B48A0FB0671B84604E000E000BF4C
:100CE000DFF8108000BF00BF4046BDE8F081000083
:100CF0000010024000127A000E2600081E2600088E
:100D000000093D00F8B504460CB90120F8BD207873
:100D100000F0010000287BD0FA48406800F00C0089
:100D200004280CD0F748406800F00C00082845D192
:100D3000F448406800F48030B0F5803F3ED1202078
:100D4000010391FAA1F1B1FA81F108430121B1EB5C
:100D5000601F02D1EB4800681DE02020010391FADA
:100D6000A1F1B1FA81F108430221B1EB601F02D178
:100D7000E448006A0FE02020010391FAA1F1B1FAE2
:100D800081F108430421B1EB601F02D1DD484068C6
:100D900001E0DC48406A20210A0392FAA2F2B2FA8A
:100DA00082F2114301F01F02012191400840002806
:100DB000B1D0606800282BD10120A7E700BF606890
:100DC000B0F5803F06D1CF48006840F48030CD496F
:100DD000086029E0606858B9CA48006820F480308B
:100DE000C84908600846006820F4802008601BE0BD
:100DF0006068B0F5A02F0CD1C248006840F4802094
:100E0000C04908600846006840F4803008600BE084
:100E1000A1E0BC48006820F48030BA490860084668
:100E2000006820F48020086000BFB648C06A20F047
:100E30000F00A1680843B349C8626068A0B3FFF718
:100E4000E7FB054606E0FFF7E3FB401B642801D9FA
:100E500003205BE72020010391FAA1F1B1FA81F1AF
:100E600008430121B1EB601F02D1A64800681EE0D3
:100E70002020010391FAA1F1B1FA81F10843022186
:100E8000B1EB601F02D19F48006A10E020200103EF
:100E900091FAA1F1B1FA81F108430421B1EB601F8D
:100EA00003D19848406802E010E09648406A20214B
:100EB0000A0392FAA2F2B2FA82F2114301F01F027F
:100EC0000121914008400028BDD044E0FFF7A0FB7D
:100ED000054606E0FFF79CFB401B642801D9032070
:100EE00014E72020010391FAA1F1B1FA81F108433E
:100EF0000121B1EB601F02D1824800681DE0202073
:100F0000010391FAA1F1B1FA81F108430221B1EB99
:100F1000601F02D17B48006A0FE02020010391FA94
:100F2000A1F1B1FA81F108430421B1EB601F02D1B4
:100F30007448406801E07348406A20210A0392FA2D
:100F4000A2F2B2FA82F2114301F01F020121914094
:100F500008400028BED1207800F0020002285CD1B1
:100F60006848406800F00C0050B16648406800F0E6
:100F70000C00082852D16348406800F48030E8BB78
:100F80002020022191FAA1F1B1FA81F10843012157
:100F9000B1EB601F02D15B4800681DE020200221F8
:100FA00091FAA1F1B1FA81F108430221B1EB601F7E
:100FB00002D15448006A0FE02020022191FAA1F1E9
:100FC000B1FA81F108430421B1EB601F02D14D4811
:100FD000406801E04B48406A2021022292FAA2F2C6
:100FE000B2FA82F2114301F01F0201219140084040
:100FF00028B12069012802D0012087E60EE041488F
:10100000006820F0F800F82292FAA2F2B2FA82F216
:101010006169914008433B490860B1E0206970B3C1
:10102000012191FAA1F0B0FA80F0374A42F820107D
:10103000FFF7EEFA054606E0FFF7EAFA401B022842
:1010400001D9032062E62020022191FAA1F1B1FA30
:1010500081F108430121B1EB601F02D129480068EA
:101060001EE02020022191FAA1F1B1FA81F108439A
:101070000221B1EB601F03D12248006A10E02CE08E
:101080002020022191FAA1F1B1FA81F10843042153
:10109000B1EB601F02D11B48406801E01948406A6B
:1010A0002021022292FAA2F2B2FA82F2114301F056
:1010B0001F020121914008400028BDD0114800685E
:1010C00020F0F800F82292FAA2F2B2FA82F26169F4
:1010D000914008430B49086052E00020012191FA39
:1010E000A1F1B1FA81F1084A42F82100FFF790FA24
:1010F00005460BE0FFF78CFA401B022806D90320B7
:1011000004E60000001002400000424220200221BC
:1011100091FAA1F1B1FA81F108430121B1EB601F0D
:1011200002D1FB4800681DE02020022191FAA1F1C4
:10113000B1FA81F108430221B1EB601F02D1F448FA
:10114000006A0FE02020022191FAA1F1B1FA81F1A9
:1011500008430421B1EB601F02D1ED48406801E073
:10116000EB48406A2021022292FAA2F2B2FA82F2FD
:10117000114301F01F020121914008400028B9D11C
:10118000207800F00800082851D1A06980B301211F
:1011900091FAA1F0B0FA80F0DE4A02EB8000C0F8CC
:1011A0008014FFF735FA054606E0FFF731FA401BD9
:1011B000022801D90320A9E56020022191FAA1F1BA
:1011C000B1FA81F108430121B1EB601F02D1D0488F
:1011D00000681EE06020022191FAA1F1B1FA81F1CC
:1011E00008430221B1EB601F03D1C948006A10E037
:1011F0001EE06020022191FAA1F1B1FA81F10843C9
:101200000421B1EB601F02D1C148406801E0C04831
:10121000406A6021022292FAA2F2B2FA82F21143EB
:1012200001F01F020121914008400028BDD04FE08D
:101230000020012191FAA1F1B1FA81F1B54A02EB46
:101240008101C1F88004FFF7E3F9054606E0FFF7E6
:10125000DFF9401B022801D9032057E56020022155
:1012600091FAA1F1B1FA81F108430121B1EB601FBC
:1012700002D1A74800681DE06020022191FAA1F187
:10128000B1FA81F108430221B1EB601F02D1A048FD
:10129000006A0FE06020022191FAA1F1B1FA81F118
:1012A00008430421B1EB601F02D19948406801E076
:1012B0009748406A6021022292FAA2F2B2FA82F2C0
:1012C000114301F01F020121914008400028BED1C6
:1012D000207800F00400042873D100278C48C069EE
:1012E00000F0805070B900BF8948C06940F080505C
:1012F0008749C8610846C06900F08050009000BF6F
:1013000000BF01278448006800F48070B0B98248AB
:10131000006840F4807080490860FFF779F905465D
:1013200006E0FFF775F9401B642801D90320EDE4BE
:101330007948006800F480700028F2D000BFE068AF
:10134000012806D17248006A40F001007049086225
:1013500027E0E06858B96E48006A20F001006C4947
:1013600008620846006A20F00400086219E0E0689C
:1013700005280BD16648006A40F004006449086201
:101380000846006A40F0010008620AE06048006A0E
:1013900020F001005E4908620846006A20F004005F
:1013A000086200BFE068B8B3FFF732F9054609E00C
:1013B000FFF72EF9401B41F28831884202D9032001
:1013C000A4E48BE04020022191FAA1F1B1FA81F16D
:1013D00008430121B1EB601F02D14D4800681EE0B7
:1013E0004020022191FAA1F1B1FA81F108430221D2
:1013F000B1EB601F02D14648006A10E04020022194
:1014000091FAA1F1B1FA81F108430421B1EB601F17
:1014100003D13F48406802E010E03D48406A402167
:10142000022292FAA2F2B2FA82F2114301F01F02F2
:101430000121914008400028BAD046E0FFF7E8F8C3
:10144000054608E0FFF7E4F8401B41F28831884286
:1014500001D903205AE44020022191FAA1F1B1FA06
:1014600081F108430121B1EB601F02D128480068D7
:101470001DE04020022191FAA1F1B1FA81F1084367
:101480000221B1EB601F02D12148006A0FE0402029
:10149000022191FAA1F1B1FA81F108430421B1EBE3
:1014A000601F02D11A48406801E01948406A402193
:1014B000022292FAA2F2B2FA82F2114301F01F0262
:1014C0000121914008400028BCD1012F05D11048CE
:1014D000C06920F080500E49C86100BFE069002853
:1014E00074D00B48406800F00C0008286FD0E06909
:1014F00002286DD100204FF0807191FAA1F1B1FA6C
:1015000081F1044A42F82100FFF782F805460CE019
:10151000001002400000424200700040FFF778F8DF
:10152000401B022801D9032047E42020010591FA3D
:10153000A1F1B1FA81F108430121B1EB601F02D1A1
:10154000774800681DE02020010591FAA1F1B1FA69
:1015500081F108430221B1EB601F02D17048006A9B
:101560000FE02020010591FAA1F1B1FA81F10843C1
:101570000421B1EB601F02D16948406801E068486E
:10158000406A20210A0592FAA2F2B2FA82F21143CD
:1015900001F01F020121914008400028BED1D4E98A
:1015A000081008435E49496821F4741108435C49F6
:1015B00048600120010691FAA1F1B1FA81F1594A7E
:1015C00042F82100FFF724F8054609E0A5E092E083
:1015D00041E0FFF71DF8401B022801D9032038E441
:1015E0002020010591FAA1F1B1FA81F1084301210E
:1015F000B1EB601F02D14A4800681DE020200105C0
:1016000091FAA1F1B1FA81F108430221B1EB601F17
:1016100002D14348006A0FE02020010591FAA1F1B0
:10162000B1FA81F108430421B1EB601F02D13C48BB
:10163000406801E03A48406A20210A0592FAA2F285
:10164000B2FA82F2114301F01F02012191400840D9
:101650000028BED061E000204FF0807191FAA1F126
:10166000B1FA81F12F4A42F82100FEF7D1FF054679
:1016700006E0FEF7CDFF401B022801D903202FE42E
:101680002020010591FAA1F1B1FA81F1084301216D
:10169000B1EB601F02D1224800681DE02020010547
:1016A00091FAA1F1B1FA81F108430221B1EB601F77
:1016B00002D11B48006A0FE02020010591FAA1F138
:1016C000B1FA81F108430421B1EB601F02D1144843
:1016D000406801E01248406A20210A0592FAA2F20D
:1016E000B2FA82F2114301F01F0201219140084039
:1016F0000028BED111E0E069012800D17DE408484E
:10170000466806F48031206A814204D106F47011E3
:10171000606A814201D001206FE400206DE4000086
:10172000001002400000424270B504462546681E83
:10173000B0F1807F01D301200FE0681E4FF0E0215F
:1017400048610F214FF0FF3000F0A6FE00204FF05F
:10175000E021886107200861002070BD7047704754
:101760007047000010B50346002200BF93F83C000C
:10177000012801D1022010BD012083F83C0000BFE8
:1017800022F0FF00CC6840EA040222F440708C682A
:1017900040EA040222F480604C6840EA040222F429
:1017A00000600C6840EA040222F480500C6940EAB0
:1017B000040222F400504C6940EA040222F4804002
:1017C0008C6A40EA040222F470200C8B40EA044246
:1017D0000D4C1868A0420ED122F470008C8C40EAA7
:1017E000045222F08070CC6940EA040222F00070BA
:1017F0000C6A40EA04021868426400BF002083F8C3
:101800003C0000BF00BFB6E7002C014030B50246E7
:101810000B4600BF92F83C00012801D1022030BDE8
:10182000012082F83C0000BF022082F83D001068D1
:10183000416810688468174D1068A84203D121F4EC
:1018400070015868014321F0700118680143106865
:101850004160104D1068A8420BD01068B0F1804F65
:1018600007D00D4D1068A84203D00C4D1068A84257
:1018700005D124F080049868044310688460012036
:1018800082F83D0000BF002082F83C0000BF00BF8E
:10189000C5E70000002C014000040040004001406A
:1018A000014691F83D00012801D001207047022037
:1018B00081F83D000868C06840F001000B68D860FE
:1018C000144B086898420BD00868B0F1804F07D0DD
:1018D000114B0868984203D0104B0868984210D109
:1018E000086880680E4B00EA0302062A0FD0B2F5A2
:1018F000803F0CD00868006840F001000B68186059
:1019000005E00868006840F001000B6818600020DE
:10191000CCE70000002C01400004004000400140E2
:1019200007000100704710B5044620680069C0F345
:101930004000D8B12068C068C0F34000B0B16FF07B
:10194000020021680861012020772068806900F08A
:10195000030018B12046FFF7E5FF05E0204600F040
:10196000EDF8204600F0FCF900202077206800699F
:10197000C0F38000D8B12068C068C0F38000B0B167
:101980006FF00400216808610220207720688069D8
:1019900000F4407018B12046FFF7C4FF05E0204670
:1019A00000F0CCF8204600F0DBF90020207720681A
:1019B0000069C0F3C000D8B12068C068C0F3C0009F
:1019C000B0B16FF00800216808610420207720681A
:1019D000C06900F0030018B12046FFF7A3FF05E03F
:1019E000204600F0ABF8204600F0BAF9002020773E
:1019F00020680069C0F30010D8B12068C068C0F347
:101A00000010B0B16FF01000216808610820207745
:101A10002068C06900F4407018B12046FFF782FFCB
:101A200005E0204600F08AF8204600F099F90020F1
:101A300020772068006900F0010058B12068C06874
:101A400000F0010030B16FF001002168086120460C
:101A500000F01EFA20680069C0F3C01058B1206879
:101A6000C068C0F3C01030B16FF080002168086119
:101A70002046FFF774FE20680069C0F3002058B1CB
:101A80002068C068C0F3C01030B16FF48070216866
:101A900008612046FFF762FE20680069C0F38010ED
:101AA00058B12068C068C0F3801030B16FF04000BA
:101AB00021680861204600F0ECF920680069C0F355
:101AC000401058B12068C068C0F3401030B16FF0CA
:101AD0002000216808612046FFF742FE10BD00008B
:101AE00010B586B00446142101A8FEF734FC114954
:101AF000206888421BD100BF0F48406940F4003085
:101B00000D4948610846406900F40030009000BF6C
:101B100000BF8815019002200290002003900490DD
:101B20000620059001A94FF09040FEF793FC06B007
:101B300010BD0000002C01400010024070472DE94C
:101B4000F04104460D461646002700BF94F83C00BD
:101B5000012802D10220BDE8F081012084F83C0078
:101B600000BF0C2E51D005DC4EB1042E1ED0082E25
:101B70007AD133E0102E60D0142EF9D175E02946C9
:101B8000206800F0F5FA2068806940F008002168BC
:101B900088612068806920F00400216888612068DD
:101BA0008069296908432168886178E029462068AE
:101BB00000F02AFB2068806940F400602168886199
:101BC0002068806920F480602168886120688069CD
:101BD000296940EA01202168886160E0294620687F
:101BE00000F064FB2068C06940F008002168C8610B
:101BF0002068C06920F004002168C8612068C069BD
:101C0000296908432168C86149E02946206800F035
:101C10009DFB2068C06940F400602168C8612068AD
:101C2000C06920F480602168C8612068C0692969A2
:101C300040EA01202168C86131E02946206800F0AF
:101C4000BBFB2068406D40F00800216848652068B3
:101C5000406D20F00400216848652068406D2969C6
:101C60000843216848651AE017E02946206800F01B
:101C7000D5FB2068406D40F400602168486520680D
:101C8000406D20F48060216848652068406D2969B6
:101C900040EA01202168486501E0012700BF00BF3C
:101CA00000BF002084F83C0000BF384653E710B561
:101CB00004460CB9012010BD94F83D0028B900205D
:101CC00084F83C00204600F029F8022084F83D000A
:101CD000211D206800F0F0F9012084F8480000BFC1
:101CE00084F83E0001213F2001554020015541204C
:101CF0000155422001554320015500BF00BF01207E
:101D000084F84400452001554620015547200155DF
:101D100000BF012084F83D000020CCE738B5044620
:101D20000D492068884215D100BF0C48806940F4F5
:101D300000600A4988610846806900F400600090EC
:101D400000BF00BF00220A211920FEF7DDFC192088
:101D5000FEF7CAFC38BD0000002C01400010024014
:101D60007047000070B504460D4615B994F83E0062
:101D700015E0042D02D13F20005D10E0082D02D1B6
:101D80004020005D0BE00C2D02D14120005D06E0FB
:101D9000102D02D14220005D01E04320005D0128AA
:101DA00001D0012070BD1DB9022084F83E001AE068
:101DB000042D03D102213F20015514E0082D03D149
:101DC0000221402001550EE00C2D03D102214120BB
:101DD000015508E0102D03D102214220015502E0F7
:101DE00002214320015501222946206800F0AEF966
:101DF0002149206888420BD020492068884207D0BA
:101E00001F492068884203D01E492068884201D1BA
:101E1000012000E0002028B12068406C40F4004020
:101E2000216848641449206888420BD02068B0F1CA
:101E3000804F07D014492068884203D00F4920689A
:101E4000884210D120688068104900EA0106062EF9
:101E50000FD0B6F5803F0CD02068006840F001003C
:101E60002168086005E02068006840F001002168F2
:101E70000860002096E70000002C0140004001406F
:101E800000440140004801400004004007000100F8
:101E90007047704700BFFEE700B587B0142102A865
:101EA000FEF759FA00BF1848406940F4800016490F
:101EB00048610846406900F48000019000BF00BFFF
:101EC00000BF0846406940F4003048610846406958
:101ED00000F40030019000BF00BF00224FF4C06149
:101EE0004FF09040FEF78EFB4FF4C060029001204F
:101EF000039000200490059002A94FF09040FEF757
:101F0000A9FA07B000BD00000010024000B595B06E
:101F100000201290139014901C210BA8FEF71BFABE
:101F20002C216846FEF717FA284829490860002046
:101F3000486000212648816048F6A041C160002128
:101F40000161416180218161FFF7B1FE08B1FEF7B7
:101F500069FA002012901390149012A91C48FFF700
:101F600055FC08B1FEF75EFA60200B9044F2506019
:101F70000C9000200D900E900F9010901190002268
:101F80000BA91348FFF7DBFD08B1FEF74BFA002061
:101F9000009001900290039004904FF4005005903F
:101FA0000020069007904FF00070089000200990E4
:101FB0000A9069460648FFF7D5FB08B1FEF732FAEA
:101FC0000348FFF78DFD15B000BD0000002C014057
:101FD0002800002000BFFEE700BFFEE77047704703
:101FE00010B5FEF71BFB10BD00B597B028210DA85A
:101FF000FEF7B1F9142108A8FEF7ADF91C2101A8DC
:10200000FEF7A9F901200D9000040E9000200F901A
:102010000120119002201490C10315914FF4E0119A
:1020200016910DA8FEF76EFE08B1FEF7FBF90F2022
:1020300008900220099000200A904FF480600B90D5
:1020400000200C90022108A8FEF7B6FC08B1FEF7AC
:10205000E9F94FF4805001900020069001A8FEF7A6
:10206000A5FB08B1FEF7DEF917B000BD0348006814
:1020700040F47000014908607047000088ED00E0FE
:1020800010B50B48FFF74FFC00BF0A48008808490D
:102090000968C862074801880548C16000BF054952
:1020A000088800EBD0714910014A1268516310BDD5
:1020B000280000200000002010B502681E4B984246
:1020C00005D0B0F1804F02D01C4B984203D122F0D2
:1020D00070024B681A43184B98420ED0B0F1804FF3
:1020E0000BD0164B984208D0154B984205D0154B93
:1020F000984202D0144B984203D122F44072CB682C
:102100001A4322F080034C6943EA040202608B68A0
:10211000C3620B688362084B984208D0084B984210
:1021200005D0084B984202D0074B984201D10B6969
:1021300003630123436110BD002C014000040040F3
:1021400000400140004401400048014030B501F02A
:102150001F05012404FA05F3046A9C430462046A1F
:1021600001F01F0502FA05F52C43046230BD0000A2
:1021700030B5056A25F001050562026A4368846985
:102180001C4D2C4024F003040D682C4322F0020265
:102190008D682A43184DA84200D10BE0174DA84284
:1021A00000D107E0164DA84200D103E0154DA8422A
:1021B00006D100BF22F00802CD682A4322F00402B3
:1021C0000D4DA84208D00D4DA84205D00C4DA84297
:1021D00002D00C4DA84207D123F4807323F400737E
:1021E0004D692B438D692B43436084614D68456382
:1021F000026230BD8FFFFEFF002C01400040014015
:10220000004401400048014030B5056A25F0100542
:102210000562026A436884691F4D2C4024F44074AF
:102220000D6844EA052422F020028D6842EA051276
:102230001A4DA84200D10BE0194DA84200D100BFB1
:10224000184DA84200D100BF174DA84207D106E0A3
:1022500022F08002CD6842EA051222F040020F4DC2
:10226000A84208D00E4DA84205D00E4DA84202D07B
:102270000D4DA84209D123F4806323F400634D6916
:1022800043EA85038D6943EA8503436084614D68B1
:102290008563026230BD0000FF8FFFFE002C01400D
:1022A00000400140004401400048014030B5056A4B
:1022B00025F480750562026A4368C4691E4D2C408E
:1022C00024F003040D682C4322F400728D6842EA66
:1022D00005221A4DA84200D10BE0194DA84200D1A9
:1022E00000BF184DA84200D100BF174DA84207D12A
:1022F00006E022F40062CD6842EA052222F4806200
:102300000E4DA84208D00E4DA84205D00D4DA84252
:1023100002D00D4DA84209D123F4805323F4005379
:102320004D6943EA05138D6943EA05134360C461AF
:102330004D68C563026230BD8FFFFEFF002C014077
:1023400000400140004401400048014030B5056AAA
:1023500025F480550562036A4468C269114D2A401C
:1023600022F440720D6842EA052223F400538D687E
:1023700043EA05330C4DA84208D00C4DA84205D0C5
:102380000B4DA84202D00B4DA84204D124F4804446
:102390004D6944EA85144460C2614D680564036276
:1023A00030BD0000FF8FFFFE002C014000400140C7
:1023B000004401400048014030B5056A25F48035ED
:1023C0000562026A4368446D0F4D2C400D682C4332
:1023D00022F400320D8942EA05420C4DA84208D091
:1023E0000B4DA84205D00B4DA84202D00A4DA84281
:1023F00004D123F480334D6943EA052343604465E7
:102400004D688565026230BD8FFFFEFF002C0140E4
:1024100000400140004401400048014030B5056AD9
:1024200025F480150562026A4368446D104D2C4006
:102430000D6844EA052422F400120D8942EA05528F
:102440000C4DA84208D00C4DA84205D00B4DA84217
:1024500002D00B4DA84204D123F480234D6943EAF6
:102460008523436044654D68C565026230BD000048
:10247000FF8FFFFE002C014000400140004401405E
:102480000048014000BFFEE702480068C0F3022098
:10249000704700000CED00E010B5002804DB0A07CF
:1024A000130E054A135406E00A07140E034A00F0FF
:1024B0000F031B1FD45410BD00E400E018ED00E032
:1024C000FEF7B8F8FFF790FDFFF7E6FC0122910256
:1024D0004FF09040FEF796F8FFF718FD48F6A04041
:1024E00042490880C820424908804248FFF7D8F98D
:1024F00000214048FFF736FC77E03F48006801289C
:1025000062D13E480078012806D1002281024FF0B6
:102510009040FEF777F805E0012291024FF09040DD
:10252000FEF770F836480078012806D100224102F3
:102530004FF09040FEF766F805E0012251024FF09F
:102540009040FEF75FF82A480088FDF76FFF2C489F
:102550000078012803D100202949087002E00120F9
:102560002749087026480078012806D10022410238
:102570004FF09040FEF746F805E0012251024FF07F
:102580009040FEF73FF81A480088FDF74FFF1C48BF
:102590000078012803D100201949087002E00120C9
:1025A0001749087016480078012806D10022410218
:1025B0004FF09040FEF726F817E0012251024FF04D
:1025C0009040FEF71FF810E000200D4908700B49FD
:1025D0000870012251024FF09040FEF713F80122DB
:1025E00091024FF09040FEF70DF886E700000020C2
:1025F000140000202800002010000020040000200B
:10260000050000204FF04070E1EE100A7047020311
:102610000405060708090A0B0C0D0E0F1010010225
:10262000030405060708090A0B0C0D0E0F10000025
:102630000000000000000102030406070809000072
:1026400000000102030400006826000800000020CA
:1026500028000000C401000890260008280000207F
:10266000B0060000E00100080000000000000000CB
:10267000000000000000000000000000000000005A
:1026800000000000100000000100000000127A00AD
:040000050800018965
:00000001FF
